{
  "_format": "hh-sol-artifact-1",
  "contractName": "PingPong",
  "sourceName": "contracts/PingPong.sol",
  "abi": [
    {
      "inputs": [
        {
          "internalType": "address",
          "name": "_dai",
          "type": "address"
        },
        {
          "internalType": "address",
          "name": "_cDai",
          "type": "address"
        }
      ],
      "stateMutability": "nonpayable",
      "type": "constructor"
    },
    {
      "inputs": [],
      "name": "cDai",
      "outputs": [
        {
          "internalType": "contract ICompound",
          "name": "",
          "type": "address"
        }
      ],
      "stateMutability": "view",
      "type": "function"
    },
    {
      "inputs": [],
      "name": "dai",
      "outputs": [
        {
          "internalType": "contract IERC20",
          "name": "",
          "type": "address"
        }
      ],
      "stateMutability": "view",
      "type": "function"
    },
    {
      "inputs": [
        {
          "internalType": "uint256",
          "name": "amount",
          "type": "uint256"
        }
      ],
      "name": "deposit",
      "outputs": [],
      "stateMutability": "nonpayable",
      "type": "function"
    },
    {
      "inputs": [
        {
          "internalType": "address",
          "name": "player",
          "type": "address"
        }
      ],
      "name": "getPlayer",
      "outputs": [
        {
          "components": [
            {
              "internalType": "uint256",
              "name": "wins",
              "type": "uint256"
            },
            {
              "internalType": "uint256",
              "name": "losses",
              "type": "uint256"
            },
            {
              "internalType": "uint256",
              "name": "rating",
              "type": "uint256"
            },
            {
              "internalType": "bool",
              "name": "registered",
              "type": "bool"
            },
            {
              "internalType": "uint256",
              "name": "balance",
              "type": "uint256"
            }
          ],
          "internalType": "struct PingPong.Player",
          "name": "",
          "type": "tuple"
        }
      ],
      "stateMutability": "view",
      "type": "function"
    },
    {
      "inputs": [
        {
          "internalType": "address",
          "name": "",
          "type": "address"
        }
      ],
      "name": "players",
      "outputs": [
        {
          "internalType": "uint256",
          "name": "wins",
          "type": "uint256"
        },
        {
          "internalType": "uint256",
          "name": "losses",
          "type": "uint256"
        },
        {
          "internalType": "uint256",
          "name": "rating",
          "type": "uint256"
        },
        {
          "internalType": "bool",
          "name": "registered",
          "type": "bool"
        },
        {
          "internalType": "uint256",
          "name": "balance",
          "type": "uint256"
        }
      ],
      "stateMutability": "view",
      "type": "function"
    },
    {
      "inputs": [],
      "name": "registerPlayer",
      "outputs": [],
      "stateMutability": "nonpayable",
      "type": "function"
    },
    {
      "inputs": [
        {
          "internalType": "address",
          "name": "opponent",
          "type": "address"
        },
        {
          "internalType": "bool",
          "name": "iWon",
          "type": "bool"
        }
      ],
      "name": "reportMatch",
      "outputs": [],
      "stateMutability": "nonpayable",
      "type": "function"
    },
    {
      "inputs": [
        {
          "internalType": "uint256",
          "name": "amount",
          "type": "uint256"
        }
      ],
      "name": "withdraw",
      "outputs": [],
      "stateMutability": "nonpayable",
      "type": "function"
    }
  ],
  "bytecode": "0x60806040523480156200001157600080fd5b506040516200198b3803806200198b83398181016040528101906200003791906200012b565b81600160006101000a81548173ffffffffffffffffffffffffffffffffffffffff021916908373ffffffffffffffffffffffffffffffffffffffff16021790555080600260006101000a81548173ffffffffffffffffffffffffffffffffffffffff021916908373ffffffffffffffffffffffffffffffffffffffff160217905550505062000172565b600080fd5b600073ffffffffffffffffffffffffffffffffffffffff82169050919050565b6000620000f382620000c6565b9050919050565b6200010581620000e6565b81146200011157600080fd5b50565b6000815190506200012581620000fa565b92915050565b60008060408385031215620001455762000144620000c1565b5b6000620001558582860162000114565b9250506020620001688582860162000114565b9150509250929050565b61180980620001826000396000f3fe608060405234801561001057600080fd5b50600436106100885760003560e01c8063b6b55f251161005b578063b6b55f2514610101578063ba9f83831461011d578063e2eb41ff14610139578063f4b9fa751461016d57610088565b80632e1a7d4d1461008d5780635c07a4b0146100a95780635c12cd4b146100b35780639b089d55146100e3575b600080fd5b6100a760048036038101906100a29190610e39565b61018b565b005b6100b16104b7565b005b6100cd60048036038101906100c89190610ec4565b610600565b6040516100da9190610f83565b60405180910390f35b6100eb61069b565b6040516100f89190610ffd565b60405180910390f35b61011b60048036038101906101169190610e39565b6106c1565b005b61013760048036038101906101329190611044565b610a6c565b005b610153600480360381019061014e9190610ec4565b610d64565b6040516101649594939291906110a2565b60405180910390f35b610175610da7565b6040516101829190611116565b60405180910390f35b6000803373ffffffffffffffffffffffffffffffffffffffff1673ffffffffffffffffffffffffffffffffffffffff16815260200190815260200160002060030160009054906101000a900460ff16610219576040517f08c379a00000000000000000000000000000000000000000000000000000000081526004016102109061118e565b60405180910390fd5b806000803373ffffffffffffffffffffffffffffffffffffffff1673ffffffffffffffffffffffffffffffffffffffff16815260200190815260200160002060040154101561029d576040517f08c379a0000000000000000000000000000000000000000000000000000000008152600401610294906111fa565b60405180910390fd5b6000600260009054906101000a900473ffffffffffffffffffffffffffffffffffffffff1673ffffffffffffffffffffffffffffffffffffffff1663852a12e3836040518263ffffffff1660e01b81526004016102fa919061121a565b6020604051808303816000875af1158015610319573d6000803e3d6000fd5b505050506040513d601f19601f8201168201806040525081019061033d919061124a565b1461037d576040517f08c379a0000000000000000000000000000000000000000000000000000000008152600401610374906112c3565b60405180910390fd5b600160009054906101000a900473ffffffffffffffffffffffffffffffffffffffff1673ffffffffffffffffffffffffffffffffffffffff1663a9059cbb33836040518363ffffffff1660e01b81526004016103da9291906112f2565b6020604051808303816000875af11580156103f9573d6000803e3d6000fd5b505050506040513d601f19601f8201168201806040525081019061041d9190611330565b61045c576040517f08c379a0000000000000000000000000000000000000000000000000000000008152600401610453906113a9565b60405180910390fd5b806000803373ffffffffffffffffffffffffffffffffffffffff1673ffffffffffffffffffffffffffffffffffffffff16815260200190815260200160002060040160008282546104ad91906113f8565b9250508190555050565b6000803373ffffffffffffffffffffffffffffffffffffffff1673ffffffffffffffffffffffffffffffffffffffff16815260200190815260200160002060030160009054906101000a900460ff1615610546576040517f08c379a000000000000000000000000000000000000000000000000000000000815260040161053d90611478565b60405180910390fd5b6040518060a0016040528060008152602001600081526020016103e8815260200160011515815260200160008152506000803373ffffffffffffffffffffffffffffffffffffffff1673ffffffffffffffffffffffffffffffffffffffff16815260200190815260200160002060008201518160000155602082015181600101556040820151816002015560608201518160030160006101000a81548160ff02191690831515021790555060808201518160040155905050565b610608610dcd565b6000808373ffffffffffffffffffffffffffffffffffffffff1673ffffffffffffffffffffffffffffffffffffffff1681526020019081526020016000206040518060a00160405290816000820154815260200160018201548152602001600282015481526020016003820160009054906101000a900460ff161515151581526020016004820154815250509050919050565b600260009054906101000a900473ffffffffffffffffffffffffffffffffffffffff1681565b6000803373ffffffffffffffffffffffffffffffffffffffff1673ffffffffffffffffffffffffffffffffffffffff16815260200190815260200160002060030160009054906101000a900460ff1661074f576040517f08c379a00000000000000000000000000000000000000000000000000000000081526004016107469061118e565b60405180910390fd5b600160009054906101000a900473ffffffffffffffffffffffffffffffffffffffff1673ffffffffffffffffffffffffffffffffffffffff166323b872dd3330846040518463ffffffff1660e01b81526004016107ae93929190611498565b6020604051808303816000875af11580156107cd573d6000803e3d6000fd5b505050506040513d601f19601f820116820180604052508101906107f19190611330565b610830576040517f08c379a00000000000000000000000000000000000000000000000000000000081526004016108279061151b565b60405180910390fd5b600160009054906101000a900473ffffffffffffffffffffffffffffffffffffffff1673ffffffffffffffffffffffffffffffffffffffff1663095ea7b3600260009054906101000a900473ffffffffffffffffffffffffffffffffffffffff16836040518363ffffffff1660e01b81526004016108af9291906112f2565b6020604051808303816000875af11580156108ce573d6000803e3d6000fd5b505050506040513d601f19601f820116820180604052508101906108f29190611330565b610931576040517f08c379a000000000000000000000000000000000000000000000000000000000815260040161092890611587565b60405180910390fd5b6000600260009054906101000a900473ffffffffffffffffffffffffffffffffffffffff1673ffffffffffffffffffffffffffffffffffffffff1663a0712d68836040518263ffffffff1660e01b815260040161098e919061121a565b6020604051808303816000875af11580156109ad573d6000803e3d6000fd5b505050506040513d601f19601f820116820180604052508101906109d1919061124a565b14610a11576040517f08c379a0000000000000000000000000000000000000000000000000000000008152600401610a08906115f3565b60405180910390fd5b806000803373ffffffffffffffffffffffffffffffffffffffff1673ffffffffffffffffffffffffffffffffffffffff1681526020019081526020016000206004016000828254610a629190611613565b9250508190555050565b6000803373ffffffffffffffffffffffffffffffffffffffff1673ffffffffffffffffffffffffffffffffffffffff16815260200190815260200160002060030160009054906101000a900460ff16610afa576040517f08c379a0000000000000000000000000000000000000000000000000000000008152600401610af190611693565b60405180910390fd5b6000808373ffffffffffffffffffffffffffffffffffffffff1673ffffffffffffffffffffffffffffffffffffffff16815260200190815260200160002060030160009054906101000a900460ff16610b88576040517f08c379a0000000000000000000000000000000000000000000000000000000008152600401610b7f906116ff565b60405180910390fd5b8173ffffffffffffffffffffffffffffffffffffffff163373ffffffffffffffffffffffffffffffffffffffff1603610bf6576040517f08c379a0000000000000000000000000000000000000000000000000000000008152600401610bed9061176b565b60405180910390fd5b60008060003373ffffffffffffffffffffffffffffffffffffffff1673ffffffffffffffffffffffffffffffffffffffff168152602001908152602001600020905060008060008573ffffffffffffffffffffffffffffffffffffffff1673ffffffffffffffffffffffffffffffffffffffff16815260200190815260200160002090508215610cf157816000016000815480929190610c959061178b565b9190505550806001016000815480929190610caf9061178b565b9190505550600a826002016000828254610cc99190611613565b925050819055506005816002016000828254610ce591906113f8565b92505081905550610d5e565b816001016000815480929190610d069061178b565b9190505550806000016000815480929190610d209061178b565b91905055506005826002016000828254610d3a91906113f8565b92505081905550600a816002016000828254610d569190611613565b925050819055505b50505050565b60006020528060005260406000206000915090508060000154908060010154908060020154908060030160009054906101000a900460ff16908060040154905085565b600160009054906101000a900473ffffffffffffffffffffffffffffffffffffffff1681565b6040518060a00160405280600081526020016000815260200160008152602001600015158152602001600081525090565b600080fd5b6000819050919050565b610e1681610e03565b8114610e2157600080fd5b50565b600081359050610e3381610e0d565b92915050565b600060208284031215610e4f57610e4e610dfe565b5b6000610e5d84828501610e24565b91505092915050565b600073ffffffffffffffffffffffffffffffffffffffff82169050919050565b6000610e9182610e66565b9050919050565b610ea181610e86565b8114610eac57600080fd5b50565b600081359050610ebe81610e98565b92915050565b600060208284031215610eda57610ed9610dfe565b5b6000610ee884828501610eaf565b91505092915050565b610efa81610e03565b82525050565b60008115159050919050565b610f1581610f00565b82525050565b60a082016000820151610f316000850182610ef1565b506020820151610f446020850182610ef1565b506040820151610f576040850182610ef1565b506060820151610f6a6060850182610f0c565b506080820151610f7d6080850182610ef1565b50505050565b600060a082019050610f986000830184610f1b565b92915050565b6000819050919050565b6000610fc3610fbe610fb984610e66565b610f9e565b610e66565b9050919050565b6000610fd582610fa8565b9050919050565b6000610fe782610fca565b9050919050565b610ff781610fdc565b82525050565b60006020820190506110126000830184610fee565b92915050565b61102181610f00565b811461102c57600080fd5b50565b60008135905061103e81611018565b92915050565b6000806040838503121561105b5761105a610dfe565b5b600061106985828601610eaf565b925050602061107a8582860161102f565b9150509250929050565b61108d81610e03565b82525050565b61109c81610f00565b82525050565b600060a0820190506110b76000830188611084565b6110c46020830187611084565b6110d16040830186611084565b6110de6060830185611093565b6110eb6080830184611084565b9695505050505050565b600061110082610fca565b9050919050565b611110816110f5565b82525050565b600060208201905061112b6000830184611107565b92915050565b600082825260208201905092915050565b7f4e6f742072656769737465726564000000000000000000000000000000000000600082015250565b6000611178600e83611131565b915061118382611142565b602082019050919050565b600060208201905081810360008301526111a78161116b565b9050919050565b7f496e73756666696369656e742062616c616e6365000000000000000000000000600082015250565b60006111e4601483611131565b91506111ef826111ae565b602082019050919050565b60006020820190508181036000830152611213816111d7565b9050919050565b600060208201905061122f6000830184611084565b92915050565b60008151905061124481610e0d565b92915050565b6000602082840312156112605761125f610dfe565b5b600061126e84828501611235565b91505092915050565b7f436f6d706f756e642072656465656d206661696c656400000000000000000000600082015250565b60006112ad601683611131565b91506112b882611277565b602082019050919050565b600060208201905081810360008301526112dc816112a0565b9050919050565b6112ec81610e86565b82525050565b600060408201905061130760008301856112e3565b6113146020830184611084565b9392505050565b60008151905061132a81611018565b92915050565b60006020828403121561134657611345610dfe565b5b60006113548482850161131b565b91505092915050565b7f444149207472616e73666572206261636b206661696c65640000000000000000600082015250565b6000611393601883611131565b915061139e8261135d565b602082019050919050565b600060208201905081810360008301526113c281611386565b9050919050565b7f4e487b7100000000000000000000000000000000000000000000000000000000600052601160045260246000fd5b600061140382610e03565b915061140e83610e03565b9250828203905081811115611426576114256113c9565b5b92915050565b7f416c726561647920726567697374657265640000000000000000000000000000600082015250565b6000611462601283611131565b915061146d8261142c565b602082019050919050565b6000602082019050818103600083015261149181611455565b9050919050565b60006060820190506114ad60008301866112e3565b6114ba60208301856112e3565b6114c76040830184611084565b949350505050565b7f444149207472616e73666572206661696c656400000000000000000000000000600082015250565b6000611505601383611131565b9150611510826114cf565b602082019050919050565b60006020820190508181036000830152611534816114f8565b9050919050565b7f44414920617070726f7665206661696c65640000000000000000000000000000600082015250565b6000611571601283611131565b915061157c8261153b565b602082019050919050565b600060208201905081810360008301526115a081611564565b9050919050565b7f436f6d706f756e64206d696e74206661696c6564000000000000000000000000600082015250565b60006115dd601483611131565b91506115e8826115a7565b602082019050919050565b6000602082019050818103600083015261160c816115d0565b9050919050565b600061161e82610e03565b915061162983610e03565b9250828201905080821115611641576116406113c9565b5b92915050565b7f596f7520617265206e6f74207265676973746572656400000000000000000000600082015250565b600061167d601683611131565b915061168882611647565b602082019050919050565b600060208201905081810360008301526116ac81611670565b9050919050565b7f4f70706f6e656e74206973206e6f742072656769737465726564000000000000600082015250565b60006116e9601a83611131565b91506116f4826116b3565b602082019050919050565b60006020820190508181036000830152611718816116dc565b9050919050565b7f596f752063616e277420706c617920616761696e737420796f757273656c6600600082015250565b6000611755601f83611131565b91506117608261171f565b602082019050919050565b6000602082019050818103600083015261178481611748565b9050919050565b600061179682610e03565b91507fffffffffffffffffffffffffffffffffffffffffffffffffffffffffffffffff82036117c8576117c76113c9565b5b60018201905091905056fea2646970667358221220b81992b2e784db967fad4757221b519d628a45e262c5d0a96b6ae595e81e17b164736f6c63430008140033",
  "linkReferences": {},
  "deployedLinkReferences": {}
}